{
  "_format": "hh-sol-artifact-1",
  "contractName": "BasePaint",
  "sourceName": "contracts/BasePaint.sol",
  "abi": [
    {
      "inputs": [
        {
          "internalType": "contract IBasePaintBrush",
          "name": "_brushes",
          "type": "address"
        },
        {
          "internalType": "uint256",
          "name": "_epochDuration",
          "type": "uint256"
        }
      ],
      "stateMutability": "nonpayable",
      "type": "constructor"
    },
    {
      "anonymous": false,
      "inputs": [
        {
          "indexed": true,
          "internalType": "address",
          "name": "account",
          "type": "address"
        },
        {
          "indexed": true,
          "internalType": "address",
          "name": "operator",
          "type": "address"
        },
        {
          "indexed": false,
          "internalType": "bool",
          "name": "approved",
          "type": "bool"
        }
      ],
      "name": "ApprovalForAll",
      "type": "event"
    },
    {
      "anonymous": false,
      "inputs": [
        {
          "indexed": true,
          "internalType": "uint256",
          "name": "day",
          "type": "uint256"
        },
        {
          "indexed": false,
          "internalType": "address",
          "name": "author",
          "type": "address"
        },
        {
          "indexed": false,
          "internalType": "uint256",
          "name": "amount",
          "type": "uint256"
        }
      ],
      "name": "ArtistWithdraw",
      "type": "event"
    },
    {
      "anonymous": false,
      "inputs": [
        {
          "indexed": true,
          "internalType": "uint256",
          "name": "day",
          "type": "uint256"
        },
        {
          "indexed": false,
          "internalType": "uint256",
          "name": "amount",
          "type": "uint256"
        }
      ],
      "name": "ArtistsEarned",
      "type": "event"
    },
    {
      "anonymous": false,
      "inputs": [
        {
          "indexed": false,
          "internalType": "uint256",
          "name": "price",
          "type": "uint256"
        }
      ],
      "name": "OpenEditionPriceUpdated",
      "type": "event"
    },
    {
      "anonymous": false,
      "inputs": [
        {
          "indexed": false,
          "internalType": "uint256",
          "name": "fee",
          "type": "uint256"
        }
      ],
      "name": "OwnerFeeUpdated",
      "type": "event"
    },
    {
      "anonymous": false,
      "inputs": [
        {
          "indexed": false,
          "internalType": "uint256",
          "name": "amount",
          "type": "uint256"
        },
        {
          "indexed": false,
          "internalType": "address",
          "name": "to",
          "type": "address"
        }
      ],
      "name": "OwnerWithdrew",
      "type": "event"
    },
    {
      "anonymous": false,
      "inputs": [
        {
          "indexed": true,
          "internalType": "address",
          "name": "previousOwner",
          "type": "address"
        },
        {
          "indexed": true,
          "internalType": "address",
          "name": "newOwner",
          "type": "address"
        }
      ],
      "name": "OwnershipTransferred",
      "type": "event"
    },
    {
      "anonymous": false,
      "inputs": [
        {
          "indexed": true,
          "internalType": "uint256",
          "name": "day",
          "type": "uint256"
        },
        {
          "indexed": false,
          "internalType": "uint256",
          "name": "tokenId",
          "type": "uint256"
        },
        {
          "indexed": false,
          "internalType": "address",
          "name": "author",
          "type": "address"
        },
        {
          "indexed": false,
          "internalType": "bytes",
          "name": "pixels",
          "type": "bytes"
        }
      ],
      "name": "Painted",
      "type": "event"
    },
    {
      "anonymous": false,
      "inputs": [
        {
          "indexed": false,
          "internalType": "uint256",
          "name": "timestamp",
          "type": "uint256"
        }
      ],
      "name": "Started",
      "type": "event"
    },
    {
      "anonymous": false,
      "inputs": [
        {
          "indexed": true,
          "internalType": "address",
          "name": "operator",
          "type": "address"
        },
        {
          "indexed": true,
          "internalType": "address",
          "name": "from",
          "type": "address"
        },
        {
          "indexed": true,
          "internalType": "address",
          "name": "to",
          "type": "address"
        },
        {
          "indexed": false,
          "internalType": "uint256[]",
          "name": "ids",
          "type": "uint256[]"
        },
        {
          "indexed": false,
          "internalType": "uint256[]",
          "name": "values",
          "type": "uint256[]"
        }
      ],
      "name": "TransferBatch",
      "type": "event"
    },
    {
      "anonymous": false,
      "inputs": [
        {
          "indexed": true,
          "internalType": "address",
          "name": "operator",
          "type": "address"
        },
        {
          "indexed": true,
          "internalType": "address",
          "name": "from",
          "type": "address"
        },
        {
          "indexed": true,
          "internalType": "address",
          "name": "to",
          "type": "address"
        },
        {
          "indexed": false,
          "internalType": "uint256",
          "name": "id",
          "type": "uint256"
        },
        {
          "indexed": false,
          "internalType": "uint256",
          "name": "value",
          "type": "uint256"
        }
      ],
      "name": "TransferSingle",
      "type": "event"
    },
    {
      "anonymous": false,
      "inputs": [
        {
          "indexed": false,
          "internalType": "string",
          "name": "value",
          "type": "string"
        },
        {
          "indexed": true,
          "internalType": "uint256",
          "name": "id",
          "type": "uint256"
        }
      ],
      "name": "URI",
      "type": "event"
    },
    {
      "inputs": [
        {
          "internalType": "uint256[]",
          "name": "indexes",
          "type": "uint256[]"
        }
      ],
      "name": "authorWithdraw",
      "outputs": [],
      "stateMutability": "nonpayable",
      "type": "function"
    },
    {
      "inputs": [
        {
          "internalType": "address",
          "name": "account",
          "type": "address"
        },
        {
          "internalType": "uint256",
          "name": "id",
          "type": "uint256"
        }
      ],
      "name": "balanceOf",
      "outputs": [
        {
          "internalType": "uint256",
          "name": "",
          "type": "uint256"
        }
      ],
      "stateMutability": "view",
      "type": "function"
    },
    {
      "inputs": [
        {
          "internalType": "address[]",
          "name": "accounts",
          "type": "address[]"
        },
        {
          "internalType": "uint256[]",
          "name": "ids",
          "type": "uint256[]"
        }
      ],
      "name": "balanceOfBatch",
      "outputs": [
        {
          "internalType": "uint256[]",
          "name": "",
          "type": "uint256[]"
        }
      ],
      "stateMutability": "view",
      "type": "function"
    },
    {
      "inputs": [
        {
          "internalType": "uint256",
          "name": "day",
          "type": "uint256"
        },
        {
          "internalType": "uint256",
          "name": "tokenId",
          "type": "uint256"
        }
      ],
      "name": "brushUsed",
      "outputs": [
        {
          "internalType": "uint256",
          "name": "",
          "type": "uint256"
        }
      ],
      "stateMutability": "view",
      "type": "function"
    },
    {
      "inputs": [],
      "name": "brushes",
      "outputs": [
        {
          "internalType": "contract IBasePaintBrush",
          "name": "",
          "type": "address"
        }
      ],
      "stateMutability": "view",
      "type": "function"
    },
    {
      "inputs": [
        {
          "internalType": "uint256",
          "name": "",
          "type": "uint256"
        }
      ],
      "name": "canvases",
      "outputs": [
        {
          "internalType": "uint256",
          "name": "totalContributions",
          "type": "uint256"
        },
        {
          "internalType": "uint256",
          "name": "totalRaised",
          "type": "uint256"
        }
      ],
      "stateMutability": "view",
      "type": "function"
    },
    {
      "inputs": [
        {
          "internalType": "uint256",
          "name": "day",
          "type": "uint256"
        },
        {
          "internalType": "address",
          "name": "author",
          "type": "address"
        }
      ],
      "name": "contribution",
      "outputs": [
        {
          "internalType": "uint256",
          "name": "",
          "type": "uint256"
        }
      ],
      "stateMutability": "view",
      "type": "function"
    },
    {
      "inputs": [],
      "name": "epochDuration",
      "outputs": [
        {
          "internalType": "uint256",
          "name": "",
          "type": "uint256"
        }
      ],
      "stateMutability": "view",
      "type": "function"
    },
    {
      "inputs": [
        {
          "internalType": "address",
          "name": "account",
          "type": "address"
        },
        {
          "internalType": "address",
          "name": "operator",
          "type": "address"
        }
      ],
      "name": "isApprovedForAll",
      "outputs": [
        {
          "internalType": "bool",
          "name": "",
          "type": "bool"
        }
      ],
      "stateMutability": "view",
      "type": "function"
    },
    {
      "inputs": [
        {
          "internalType": "uint256",
          "name": "day",
          "type": "uint256"
        },
        {
          "internalType": "uint256",
          "name": "count",
          "type": "uint256"
        }
      ],
      "name": "mint",
      "outputs": [],
      "stateMutability": "payable",
      "type": "function"
    },
    {
      "inputs": [],
      "name": "openEditionPrice",
      "outputs": [
        {
          "internalType": "uint256",
          "name": "",
          "type": "uint256"
        }
      ],
      "stateMutability": "view",
      "type": "function"
    },
    {
      "inputs": [],
      "name": "owner",
      "outputs": [
        {
          "internalType": "address",
          "name": "",
          "type": "address"
        }
      ],
      "stateMutability": "view",
      "type": "function"
    },
    {
      "inputs": [],
      "name": "ownerEarned",
      "outputs": [
        {
          "internalType": "uint256",
          "name": "",
          "type": "uint256"
        }
      ],
      "stateMutability": "view",
      "type": "function"
    },
    {
      "inputs": [],
      "name": "ownerFeePartsPerMillion",
      "outputs": [
        {
          "internalType": "uint256",
          "name": "",
          "type": "uint256"
        }
      ],
      "stateMutability": "view",
      "type": "function"
    },
    {
      "inputs": [
        {
          "internalType": "uint256",
          "name": "day",
          "type": "uint256"
        },
        {
          "internalType": "uint256",
          "name": "tokenId",
          "type": "uint256"
        },
        {
          "internalType": "bytes",
          "name": "pixels",
          "type": "bytes"
        }
      ],
      "name": "paint",
      "outputs": [],
      "stateMutability": "nonpayable",
      "type": "function"
    },
    {
      "inputs": [],
      "name": "renounceOwnership",
      "outputs": [],
      "stateMutability": "nonpayable",
      "type": "function"
    },
    {
      "inputs": [
        {
          "internalType": "address",
          "name": "from",
          "type": "address"
        },
        {
          "internalType": "address",
          "name": "to",
          "type": "address"
        },
        {
          "internalType": "uint256[]",
          "name": "ids",
          "type": "uint256[]"
        },
        {
          "internalType": "uint256[]",
          "name": "amounts",
          "type": "uint256[]"
        },
        {
          "internalType": "bytes",
          "name": "data",
          "type": "bytes"
        }
      ],
      "name": "safeBatchTransferFrom",
      "outputs": [],
      "stateMutability": "nonpayable",
      "type": "function"
    },
    {
      "inputs": [
        {
          "internalType": "address",
          "name": "from",
          "type": "address"
        },
        {
          "internalType": "address",
          "name": "to",
          "type": "address"
        },
        {
          "internalType": "uint256",
          "name": "id",
          "type": "uint256"
        },
        {
          "internalType": "uint256",
          "name": "amount",
          "type": "uint256"
        },
        {
          "internalType": "bytes",
          "name": "data",
          "type": "bytes"
        }
      ],
      "name": "safeTransferFrom",
      "outputs": [],
      "stateMutability": "nonpayable",
      "type": "function"
    },
    {
      "inputs": [
        {
          "internalType": "address",
          "name": "operator",
          "type": "address"
        },
        {
          "internalType": "bool",
          "name": "approved",
          "type": "bool"
        }
      ],
      "name": "setApprovalForAll",
      "outputs": [],
      "stateMutability": "nonpayable",
      "type": "function"
    },
    {
      "inputs": [
        {
          "internalType": "uint256",
          "name": "newPrice",
          "type": "uint256"
        }
      ],
      "name": "setOpenEditionPrice",
      "outputs": [],
      "stateMutability": "nonpayable",
      "type": "function"
    },
    {
      "inputs": [
        {
          "internalType": "uint256",
          "name": "newFee",
          "type": "uint256"
        }
      ],
      "name": "setOwnerFee",
      "outputs": [],
      "stateMutability": "nonpayable",
      "type": "function"
    },
    {
      "inputs": [
        {
          "internalType": "string",
          "name": "newuri",
          "type": "string"
        }
      ],
      "name": "setURI",
      "outputs": [],
      "stateMutability": "nonpayable",
      "type": "function"
    },
    {
      "inputs": [],
      "name": "start",
      "outputs": [],
      "stateMutability": "nonpayable",
      "type": "function"
    },
    {
      "inputs": [],
      "name": "startedAt",
      "outputs": [
        {
          "internalType": "uint256",
          "name": "",
          "type": "uint256"
        }
      ],
      "stateMutability": "view",
      "type": "function"
    },
    {
      "inputs": [
        {
          "internalType": "bytes4",
          "name": "interfaceId",
          "type": "bytes4"
        }
      ],
      "name": "supportsInterface",
      "outputs": [
        {
          "internalType": "bool",
          "name": "",
          "type": "bool"
        }
      ],
      "stateMutability": "view",
      "type": "function"
    },
    {
      "inputs": [],
      "name": "today",
      "outputs": [
        {
          "internalType": "uint256",
          "name": "",
          "type": "uint256"
        }
      ],
      "stateMutability": "view",
      "type": "function"
    },
    {
      "inputs": [
        {
          "internalType": "address",
          "name": "newOwner",
          "type": "address"
        }
      ],
      "name": "transferOwnership",
      "outputs": [],
      "stateMutability": "nonpayable",
      "type": "function"
    },
    {
      "inputs": [
        {
          "internalType": "uint256",
          "name": "",
          "type": "uint256"
        }
      ],
      "name": "uri",
      "outputs": [
        {
          "internalType": "string",
          "name": "",
          "type": "string"
        }
      ],
      "stateMutability": "view",
      "type": "function"
    },
    {
      "inputs": [
        {
          "internalType": "address",
          "name": "to",
          "type": "address"
        }
      ],
      "name": "withdraw",
      "outputs": [],
      "stateMutability": "nonpayable",
      "type": "function"
    }
  ],
  "bytecode": "0x60a060405266093cafac6a8000600755620186a06008553480156200002357600080fd5b5060405162002b7e38038062002b7e833981016040819052620000469162000105565b60405180606001604052806022815260200162002b5c602291396200006b81620000a1565b506200007733620000b3565b600480546001600160a01b0319166001600160a01b039390931692909217909155608052620002b2565b6002620000af8282620001e6565b5050565b600380546001600160a01b038381166001600160a01b0319831681179093556040519116919082907f8be0079c531659141344cd1fd0a4f28419497f9722a3daafe3b4186f6b6457e090600090a35050565b600080604083850312156200011957600080fd5b82516001600160a01b03811681146200013157600080fd5b6020939093015192949293505050565b634e487b7160e01b600052604160045260246000fd5b600181811c908216806200016c57607f821691505b6020821081036200018d57634e487b7160e01b600052602260045260246000fd5b50919050565b601f821115620001e157600081815260208120601f850160051c81016020861015620001bc5750805b601f850160051c820191505b81811015620001dd57828155600101620001c8565b5050505b505050565b81516001600160401b0381111562000202576200020262000141565b6200021a8162000213845462000157565b8462000193565b602080601f831160018114620002525760008415620002395750858301515b600019600386901b1c1916600185901b178555620001dd565b600085815260208120601f198616915b82811015620002835788860151825594840194600190910190840162000262565b5085821015620002a25787850151600019600388901b60f8161c191681555b5050505050600190811b01905550565b608051612887620002d560003960008181610374015261121101526128876000f3fe6080604052600436106101c15760003560e01c80638abe0991116100f7578063dfa3a43211610095578063f242432a11610064578063f242432a14610598578063f2fde38b146105b8578063f9af6c58146105d8578063fbf0ade1146105ee57600080fd5b8063dfa3a432146104d2578063e985e9c514610519578063f0e639e114610562578063f21f537d1461058257600080fd5b8063b079bbcc116100d1578063b079bbcc1461043f578063b74e452b1461045f578063be9a655514610474578063d9d197a61461048957600080fd5b80638abe0991146103e15780638da5cb5b14610401578063a22cb4651461041f57600080fd5b80632eb2c2d6116101645780634ff0876a1161013e5780634ff0876a1461036257806351cff8d91461039657806369865686146103b6578063715018a6146103cc57600080fd5b80632eb2c2d6146102dd57806349621c3f146102fd5780634e1273f41461033557600080fd5b80630e89341c116101a05780630e89341c1461024b57806314de57cb146102785780631b2ef1ca1461028e5780632ac70a2d146102a157600080fd5b8062fdd58e146101c657806301ffc9a7146101f957806302fe530514610229575b600080fd5b3480156101d257600080fd5b506101e66101e1366004611c84565b61060e565b6040519081526020015b60405180910390f35b34801561020557600080fd5b50610219610214366004611cc6565b6106a7565b60405190151581526020016101f0565b34801561023557600080fd5b50610249610244366004611d32565b6106f7565b005b34801561025757600080fd5b5061026b610266366004611d73565b610742565b6040516101f09190611dd2565b34801561028457600080fd5b506101e660085481565b61024961029c366004611de5565b6107d6565b3480156102ad57600080fd5b506101e66102bc366004611de5565b60009182526005602090815260408084209284526003909201905290205490565b3480156102e957600080fd5b506102496102f8366004611f50565b6109a3565b34801561030957600080fd5b5060045461031d906001600160a01b031681565b6040516001600160a01b0390911681526020016101f0565b34801561034157600080fd5b50610355610350366004611ffd565b6109ef565b6040516101f09190612104565b34801561036e57600080fd5b506101e67f000000000000000000000000000000000000000000000000000000000000000081565b3480156103a257600080fd5b506102496103b1366004612117565b610b18565b3480156103c257600080fd5b506101e660075481565b3480156103d857600080fd5b50610249610c03565b3480156103ed57600080fd5b506102496103fc366004612134565b610c17565b34801561040d57600080fd5b506003546001600160a01b031661031d565b34801561042b57600080fd5b5061024961043a3660046121a8565b610ec0565b34801561044b57600080fd5b5061024961045a3660046121e6565b610ecb565b34801561046b57600080fd5b506101e661120d565b34801561048057600080fd5b50610249611258565b34801561049557600080fd5b506104bd6104a4366004611d73565b6005602052600090815260409020805460019091015482565b604080519283526020830191909152016101f0565b3480156104de57600080fd5b506101e66104ed366004612238565b60008281526005602090815260408083206001600160a01b038516845260020190915290205492915050565b34801561052557600080fd5b5061021961053436600461225d565b6001600160a01b03918216600090815260016020908152604080832093909416825291909152205460ff1690565b34801561056e57600080fd5b5061024961057d366004611d73565b6112dc565b34801561058e57600080fd5b506101e660065481565b3480156105a457600080fd5b506102496105b336600461228b565b611320565b3480156105c457600080fd5b506102496105d3366004612117565b611365565b3480156105e457600080fd5b506101e660095481565b3480156105fa57600080fd5b50610249610609366004611d73565b6113de565b60006001600160a01b03831661067e5760405162461bcd60e51b815260206004820152602a60248201527f455243313135353a2061646472657373207a65726f206973206e6f742061207660448201526930b634b21037bbb732b960b11b60648201526084015b60405180910390fd5b506000818152602081815260408083206001600160a01b03861684529091529020545b92915050565b60006001600160e01b03198216636cdb3d1360e11b14806106d857506001600160e01b031982166303a24d0760e21b145b806106a157506301ffc9a760e01b6001600160e01b03198316146106a1565b6106ff61145b565b61073e82828080601f0160208091040260200160405190810160405280939291908181526020018383808284376000920191909152506114b592505050565b5050565b606060028054610751906122f3565b80601f016020809104026020016040519081016040528092919081815260200182805461077d906122f3565b80156107ca5780601f1061079f576101008083540402835291602001916107ca565b820191906000526020600020905b8154815290600101906020018083116107ad57829003601f168201915b50505050509050919050565b6000600654116108165760405162461bcd60e51b815260206004820152600b60248201526a139bdd081cdd185c9d195960aa1b6044820152606401610675565b61081e61120d565b610829836001612343565b146108465760405162461bcd60e51b815260040161067590612356565b80600754610854919061237b565b3410156108935760405162461bcd60e51b815260206004820152600d60248201526c496e76616c696420707269636560981b6044820152606401610675565b6000828152600560205260409020546108dd5760405162461bcd60e51b815260206004820152600c60248201526b456d7074792063616e76617360a01b6044820152606401610675565b6108f8338383604051806020016040528060008152506114c1565b6000620f42406008543461090c919061237b565b61091691906123a8565b9050806009600082825461092a9190612343565b9091555061093a905081346123bc565b6000848152600560205260408120600101805490919061095b908490612343565b909155508390507f1033721d007e6103a21cb6edd862fc6eb6a601285ee27d595c4d9f9e597a183761098d83346123bc565b60405190815260200160405180910390a2505050565b6001600160a01b0385163314806109bf57506109bf8533610534565b6109db5760405162461bcd60e51b8152600401610675906123cf565b6109e885858585856115d5565b5050505050565b60608151835114610a545760405162461bcd60e51b815260206004820152602960248201527f455243313135353a206163636f756e747320616e6420696473206c656e677468604482015268040dad2e6dac2e8c6d60bb1b6064820152608401610675565b600083516001600160401b03811115610a6f57610a6f611e07565b604051908082528060200260200182016040528015610a98578160200160208202803683370190505b50905060005b8451811015610b1057610ae3858281518110610abc57610abc61241d565b6020026020010151858381518110610ad657610ad661241d565b602002602001015161060e565b828281518110610af557610af561241d565b6020908102919091010152610b0981612433565b9050610a9e565b509392505050565b610b2061145b565b600980546000918290556040519091906001600160a01b0384169083908381818185875af1925050503d8060008114610b75576040519150601f19603f3d011682016040523d82523d6000602084013e610b7a565b606091505b5050905080610bbd5760405162461bcd60e51b815260206004820152600f60248201526e151c985b9cd9995c8819985a5b1959608a1b6044820152606401610675565b604080518381526001600160a01b03851660208201527f5bbdd53ba1d6d75026c4b60ff971e848d7bd18fd647eaeaa174c913f3f0f1bdf910160405180910390a1505050565b610c0b61145b565b610c1560006117b2565b565b60006001610c2361120d565b610c2d91906123bc565b905060005b82811015610eba576000848483818110610c4e57610c4e61241d565b905060200201359050828110610c765760405162461bcd60e51b815260040161067590612356565b60008181526005602052604090206001810154610ccc5760405162461bcd60e51b81526020600482015260146024820152734e6f2066756e647320746f20776974686472617760601b6044820152606401610675565b8054610d095760405162461bcd60e51b815260206004820152600c60248201526b456d7074792063616e76617360a01b6044820152606401610675565b336000908152600282016020526040902054610d5a5760405162461bcd60e51b815260206004820152601060248201526f4e6f20636f6e747269627574696f6e7360801b6044820152606401610675565b80543360009081526002830160205260408120546001840154919291610d80919061237b565b610d8a91906123a8565b905080826001016000828254610da091906123bc565b9091555050336000908152600283016020526040812054835490918491610dc89084906123bc565b90915550503360008181526002840160205260408082208290555190919083908381818185875af1925050503d8060008114610e20576040519150601f19603f3d011682016040523d82523d6000602084013e610e25565b606091505b5050905080610e685760405162461bcd60e51b815260206004820152600f60248201526e151c985b9cd9995c8819985a5b1959608a1b6044820152606401610675565b604080513381526020810184905285917fcc1db7b1578c9fa756ff3c2d490732a4790a5a1181ab6eb5829daa870e246d95910160405180910390a2505050508080610eb290612433565b915050610c32565b50505050565b61073e338383611804565b600060065411610f0b5760405162461bcd60e51b815260206004820152600b60248201526a139bdd081cdd185c9d195960aa1b6044820152606401610675565b610f1361120d565b8414610f315760405162461bcd60e51b815260040161067590612356565b600480546040516331a9108f60e11b815291820185905233916001600160a01b0390911690636352211e90602401602060405180830381865afa158015610f7c573d6000803e3d6000fd5b505050506040513d601f19601f82011682018060405250810190610fa0919061244c565b6001600160a01b031614610ff65760405162461bcd60e51b815260206004820152601860248201527f596f7520646f6e2774206f776e207468697320627275736800000000000000006044820152606401610675565b611001600382612469565b156110435760405162461bcd60e51b8152602060048201526012602482015271496e76616c696420706978656c206461746160701b6044820152606401610675565b806110855760405162461bcd60e51b8152602060048201526012602482015271496e76616c696420706978656c206461746160701b6044820152606401610675565b60006110926003836123a8565b6000868152600560209081526040808320338452600281019092528220805493945090928492906110c4908490612343565b90915550506000858152600382016020526040812080548492906110e9908490612343565b9091555050805482908290600090611102908490612343565b9091555050600480546040516377bbe0c360e11b81529182018790526001600160a01b03169063ef77c18690602401602060405180830381865afa15801561114e573d6000803e3d6000fd5b505050506040513d601f19601f82011682018060405250810190611172919061247d565b600086815260038301602052604090205411156111c75760405162461bcd60e51b8152602060048201526013602482015272084e4eae6d040eae6cac840e8dede40daeac6d606b1b6044820152606401610675565b857f4ecc3f51341c13c2f7214d794dfea90b5bab5d7ff3951ca088f6329255a5dda2863387876040516111fd9493929190612496565b60405180910390a2505050505050565b60007f00000000000000000000000000000000000000000000000000000000000000006006544261123e91906123bc565b61124891906123a8565b611253906001612343565b905090565b61126061145b565b600654156112a25760405162461bcd60e51b815260206004820152600f60248201526e105b1c9958591e481cdd185c9d1959608a1b6044820152606401610675565b4260068190556040519081527e6e0c97de781a7389d44ba8fd35d1467cabb17ed04d038d166d34ab819213f39060200160405180910390a1565b6112e461145b565b60078190556040518181527f8824e69bdb6ace1cae2d46266847d0b140caf4a17ea02b2317c95e62f5cf341a906020015b60405180910390a150565b6001600160a01b03851633148061133c575061133c8533610534565b6113585760405162461bcd60e51b8152600401610675906123cf565b6109e885858585856118e4565b61136d61145b565b6001600160a01b0381166113d25760405162461bcd60e51b815260206004820152602660248201527f4f776e61626c653a206e6577206f776e657220697320746865207a65726f206160448201526564647265737360d01b6064820152608401610675565b6113db816117b2565b50565b6113e661145b565b620f424081106114265760405162461bcd60e51b815260206004820152600b60248201526a496e76616c69642066656560a81b6044820152606401610675565b60088190556040518181527f5d366c044b06faba913c60796eaeecb48b0ecfe9f5834c86a239955a90054abb90602001611315565b6003546001600160a01b03163314610c155760405162461bcd60e51b815260206004820181905260248201527f4f776e61626c653a2063616c6c6572206973206e6f7420746865206f776e65726044820152606401610675565b600261073e8282612528565b6001600160a01b0384166115215760405162461bcd60e51b815260206004820152602160248201527f455243313135353a206d696e7420746f20746865207a65726f206164647265736044820152607360f81b6064820152608401610675565b33600061152d85611a0e565b9050600061153a85611a0e565b90506000868152602081815260408083206001600160a01b038b1684529091528120805487929061156c908490612343565b909155505060408051878152602081018790526001600160a01b03808a1692600092918716917fc3d58168c5ae7397731d063d5bbf3d657854427343f4c083240f7aacaa2d0f62910160405180910390a46115cc83600089898989611a59565b50505050505050565b81518351146116375760405162461bcd60e51b815260206004820152602860248201527f455243313135353a2069647320616e6420616d6f756e7473206c656e677468206044820152670dad2e6dac2e8c6d60c31b6064820152608401610675565b6001600160a01b03841661165d5760405162461bcd60e51b8152600401610675906125e7565b3360005b845181101561174457600085828151811061167e5761167e61241d565b60200260200101519050600085838151811061169c5761169c61241d565b602090810291909101810151600084815280835260408082206001600160a01b038e1683529093529190912054909150818110156116ec5760405162461bcd60e51b81526004016106759061262c565b6000838152602081815260408083206001600160a01b038e8116855292528083208585039055908b16825281208054849290611729908490612343565b925050819055505050508061173d90612433565b9050611661565b50846001600160a01b0316866001600160a01b0316826001600160a01b03167f4a39dc06d4c0dbc64b70af90fd698a233a518aa5d07e595d983b8c0526c8f7fb8787604051611794929190612676565b60405180910390a46117aa818787878787611bb4565b505050505050565b600380546001600160a01b038381166001600160a01b0319831681179093556040519116919082907f8be0079c531659141344cd1fd0a4f28419497f9722a3daafe3b4186f6b6457e090600090a35050565b816001600160a01b0316836001600160a01b0316036118775760405162461bcd60e51b815260206004820152602960248201527f455243313135353a2073657474696e6720617070726f76616c20737461747573604482015268103337b91039b2b63360b91b6064820152608401610675565b6001600160a01b03838116600081815260016020908152604080832094871680845294825291829020805460ff191686151590811790915591519182527f17307eab39ab6107e8899845ad3d59bd9653f200f220920489ca2b5937696c31910160405180910390a3505050565b6001600160a01b03841661190a5760405162461bcd60e51b8152600401610675906125e7565b33600061191685611a0e565b9050600061192385611a0e565b90506000868152602081815260408083206001600160a01b038c168452909152902054858110156119665760405162461bcd60e51b81526004016106759061262c565b6000878152602081815260408083206001600160a01b038d8116855292528083208985039055908a168252812080548892906119a3908490612343565b909155505060408051888152602081018890526001600160a01b03808b16928c821692918816917fc3d58168c5ae7397731d063d5bbf3d657854427343f4c083240f7aacaa2d0f62910160405180910390a4611a03848a8a8a8a8a611a59565b505050505050505050565b60408051600180825281830190925260609160009190602080830190803683370190505090508281600081518110611a4857611a4861241d565b602090810291909101015292915050565b6001600160a01b0384163b156117aa5760405163f23a6e6160e01b81526001600160a01b0385169063f23a6e6190611a9d90899089908890889088906004016126a4565b6020604051808303816000875af1925050508015611ad8575060408051601f3d908101601f19168201909252611ad5918101906126e9565b60015b611b8457611ae4612706565b806308c379a003611b1d5750611af8612722565b80611b035750611b1f565b8060405162461bcd60e51b81526004016106759190611dd2565b505b60405162461bcd60e51b815260206004820152603460248201527f455243313135353a207472616e7366657220746f206e6f6e2d455243313135356044820152732932b1b2b4bb32b91034b6b83632b6b2b73a32b960611b6064820152608401610675565b6001600160e01b0319811663f23a6e6160e01b146115cc5760405162461bcd60e51b8152600401610675906127ab565b6001600160a01b0384163b156117aa5760405163bc197c8160e01b81526001600160a01b0385169063bc197c8190611bf890899089908890889088906004016127f3565b6020604051808303816000875af1925050508015611c33575060408051601f3d908101601f19168201909252611c30918101906126e9565b60015b611c3f57611ae4612706565b6001600160e01b0319811663bc197c8160e01b146115cc5760405162461bcd60e51b8152600401610675906127ab565b6001600160a01b03811681146113db57600080fd5b60008060408385031215611c9757600080fd5b8235611ca281611c6f565b946020939093013593505050565b6001600160e01b0319811681146113db57600080fd5b600060208284031215611cd857600080fd5b8135611ce381611cb0565b9392505050565b60008083601f840112611cfc57600080fd5b5081356001600160401b03811115611d1357600080fd5b602083019150836020828501011115611d2b57600080fd5b9250929050565b60008060208385031215611d4557600080fd5b82356001600160401b03811115611d5b57600080fd5b611d6785828601611cea565b90969095509350505050565b600060208284031215611d8557600080fd5b5035919050565b6000815180845260005b81811015611db257602081850181015186830182015201611d96565b506000602082860101526020601f19601f83011685010191505092915050565b602081526000611ce36020830184611d8c565b60008060408385031215611df857600080fd5b50508035926020909101359150565b634e487b7160e01b600052604160045260246000fd5b601f8201601f191681016001600160401b0381118282101715611e4257611e42611e07565b6040525050565b60006001600160401b03821115611e6257611e62611e07565b5060051b60200190565b600082601f830112611e7d57600080fd5b81356020611e8a82611e49565b604051611e978282611e1d565b83815260059390931b8501820192828101915086841115611eb757600080fd5b8286015b84811015611ed25780358352918301918301611ebb565b509695505050505050565b600082601f830112611eee57600080fd5b81356001600160401b03811115611f0757611f07611e07565b604051611f1e601f8301601f191660200182611e1d565b818152846020838601011115611f3357600080fd5b816020850160208301376000918101602001919091529392505050565b600080600080600060a08688031215611f6857600080fd5b8535611f7381611c6f565b94506020860135611f8381611c6f565b935060408601356001600160401b0380821115611f9f57600080fd5b611fab89838a01611e6c565b94506060880135915080821115611fc157600080fd5b611fcd89838a01611e6c565b93506080880135915080821115611fe357600080fd5b50611ff088828901611edd565b9150509295509295909350565b6000806040838503121561201057600080fd5b82356001600160401b038082111561202757600080fd5b818501915085601f83011261203b57600080fd5b8135602061204882611e49565b6040516120558282611e1d565b83815260059390931b850182019282810191508984111561207557600080fd5b948201945b8386101561209c57853561208d81611c6f565b8252948201949082019061207a565b965050860135925050808211156120b257600080fd5b506120bf85828601611e6c565b9150509250929050565b600081518084526020808501945080840160005b838110156120f9578151875295820195908201906001016120dd565b509495945050505050565b602081526000611ce360208301846120c9565b60006020828403121561212957600080fd5b8135611ce381611c6f565b6000806020838503121561214757600080fd5b82356001600160401b038082111561215e57600080fd5b818501915085601f83011261217257600080fd5b81358181111561218157600080fd5b8660208260051b850101111561219657600080fd5b60209290920196919550909350505050565b600080604083850312156121bb57600080fd5b82356121c681611c6f565b9150602083013580151581146121db57600080fd5b809150509250929050565b600080600080606085870312156121fc57600080fd5b843593506020850135925060408501356001600160401b0381111561222057600080fd5b61222c87828801611cea565b95989497509550505050565b6000806040838503121561224b57600080fd5b8235915060208301356121db81611c6f565b6000806040838503121561227057600080fd5b823561227b81611c6f565b915060208301356121db81611c6f565b600080600080600060a086880312156122a357600080fd5b85356122ae81611c6f565b945060208601356122be81611c6f565b9350604086013592506060860135915060808601356001600160401b038111156122e757600080fd5b611ff088828901611edd565b600181811c9082168061230757607f821691505b60208210810361232757634e487b7160e01b600052602260045260246000fd5b50919050565b634e487b7160e01b600052601160045260246000fd5b808201808211156106a1576106a161232d565b6020808252600b908201526a496e76616c69642064617960a81b604082015260600190565b80820281158282048414176106a1576106a161232d565b634e487b7160e01b600052601260045260246000fd5b6000826123b7576123b7612392565b500490565b818103818111156106a1576106a161232d565b6020808252602e908201527f455243313135353a2063616c6c6572206973206e6f7420746f6b656e206f776e60408201526d195c881bdc88185c1c1c9bdd995960921b606082015260800190565b634e487b7160e01b600052603260045260246000fd5b6000600182016124455761244561232d565b5060010190565b60006020828403121561245e57600080fd5b8151611ce381611c6f565b60008261247857612478612392565b500690565b60006020828403121561248f57600080fd5b5051919050565b8481526001600160a01b03841660208201526060604082018190528101829052818360808301376000818301608090810191909152601f909201601f191601019392505050565b601f82111561252357600081815260208120601f850160051c810160208610156125045750805b601f850160051c820191505b818110156117aa57828155600101612510565b505050565b81516001600160401b0381111561254157612541611e07565b6125558161254f84546122f3565b846124dd565b602080601f83116001811461258a57600084156125725750858301515b600019600386901b1c1916600185901b1785556117aa565b600085815260208120601f198616915b828110156125b95788860151825594840194600190910190840161259a565b50858210156125d75787850151600019600388901b60f8161c191681555b5050505050600190811b01905550565b60208082526025908201527f455243313135353a207472616e7366657220746f20746865207a65726f206164604082015264647265737360d81b606082015260800190565b6020808252602a908201527f455243313135353a20696e73756666696369656e742062616c616e636520666f60408201526939103a3930b739b332b960b11b606082015260800190565b60408152600061268960408301856120c9565b828103602084015261269b81856120c9565b95945050505050565b6001600160a01b03868116825285166020820152604081018490526060810183905260a0608082018190526000906126de90830184611d8c565b979650505050505050565b6000602082840312156126fb57600080fd5b8151611ce381611cb0565b600060033d111561271f5760046000803e5060005160e01c5b90565b600060443d10156127305790565b6040516003193d81016004833e81513d6001600160401b03816024840111818411171561275f57505050505090565b82850191508151818111156127775750505050505090565b843d87010160208285010111156127915750505050505090565b6127a060208286010187611e1d565b509095945050505050565b60208082526028908201527f455243313135353a204552433131353552656365697665722072656a656374656040820152676420746f6b656e7360c01b606082015260800190565b6001600160a01b0386811682528516602082015260a06040820181905260009061281f908301866120c9565b828103606084015261283181866120c9565b905082810360808401526128458185611d8c565b9897505050505050505056fea2646970667358221220c99cda4c4efcfa48e6e2e5eb030c5801e40e7a7d023522ed1ac0166663ae6a0864736f6c6343000813003368747470733a2f2f626173657061696e742e78797a2f6170692f6172742f7b69647d",
  "linkReferences": {},
  "deployedLinkReferences": {}
}