{
  "_format": "hh-sol-artifact-1",
  "contractName": "BasePaintBrush",
  "sourceName": "contracts/BasePaintBrush.sol",
  "abi": [
    {
      "inputs": [],
      "name": "InvalidShortString",
      "type": "error"
    },
    {
      "inputs": [
        {
          "internalType": "string",
          "name": "str",
          "type": "string"
        }
      ],
      "name": "StringTooLong",
      "type": "error"
    },
    {
      "anonymous": false,
      "inputs": [
        {
          "indexed": true,
          "internalType": "address",
          "name": "owner",
          "type": "address"
        },
        {
          "indexed": true,
          "internalType": "address",
          "name": "approved",
          "type": "address"
        },
        {
          "indexed": true,
          "internalType": "uint256",
          "name": "tokenId",
          "type": "uint256"
        }
      ],
      "name": "Approval",
      "type": "event"
    },
    {
      "anonymous": false,
      "inputs": [
        {
          "indexed": true,
          "internalType": "address",
          "name": "owner",
          "type": "address"
        },
        {
          "indexed": true,
          "internalType": "address",
          "name": "operator",
          "type": "address"
        },
        {
          "indexed": false,
          "internalType": "bool",
          "name": "approved",
          "type": "bool"
        }
      ],
      "name": "ApprovalForAll",
      "type": "event"
    },
    {
      "anonymous": false,
      "inputs": [],
      "name": "EIP712DomainChanged",
      "type": "event"
    },
    {
      "anonymous": false,
      "inputs": [
        {
          "indexed": true,
          "internalType": "address",
          "name": "previousOwner",
          "type": "address"
        },
        {
          "indexed": true,
          "internalType": "address",
          "name": "newOwner",
          "type": "address"
        }
      ],
      "name": "OwnershipTransferred",
      "type": "event"
    },
    {
      "anonymous": false,
      "inputs": [
        {
          "indexed": true,
          "internalType": "address",
          "name": "from",
          "type": "address"
        },
        {
          "indexed": true,
          "internalType": "address",
          "name": "to",
          "type": "address"
        },
        {
          "indexed": true,
          "internalType": "uint256",
          "name": "tokenId",
          "type": "uint256"
        }
      ],
      "name": "Transfer",
      "type": "event"
    },
    {
      "inputs": [
        {
          "internalType": "address",
          "name": "to",
          "type": "address"
        },
        {
          "internalType": "uint256",
          "name": "tokenId",
          "type": "uint256"
        }
      ],
      "name": "approve",
      "outputs": [],
      "stateMutability": "nonpayable",
      "type": "function"
    },
    {
      "inputs": [
        {
          "internalType": "address",
          "name": "owner",
          "type": "address"
        }
      ],
      "name": "balanceOf",
      "outputs": [
        {
          "internalType": "uint256",
          "name": "",
          "type": "uint256"
        }
      ],
      "stateMutability": "view",
      "type": "function"
    },
    {
      "inputs": [],
      "name": "eip712Domain",
      "outputs": [
        {
          "internalType": "bytes1",
          "name": "fields",
          "type": "bytes1"
        },
        {
          "internalType": "string",
          "name": "name",
          "type": "string"
        },
        {
          "internalType": "string",
          "name": "version",
          "type": "string"
        },
        {
          "internalType": "uint256",
          "name": "chainId",
          "type": "uint256"
        },
        {
          "internalType": "address",
          "name": "verifyingContract",
          "type": "address"
        },
        {
          "internalType": "bytes32",
          "name": "salt",
          "type": "bytes32"
        },
        {
          "internalType": "uint256[]",
          "name": "extensions",
          "type": "uint256[]"
        }
      ],
      "stateMutability": "view",
      "type": "function"
    },
    {
      "inputs": [
        {
          "internalType": "uint256",
          "name": "tokenId",
          "type": "uint256"
        }
      ],
      "name": "getApproved",
      "outputs": [
        {
          "internalType": "address",
          "name": "",
          "type": "address"
        }
      ],
      "stateMutability": "view",
      "type": "function"
    },
    {
      "inputs": [
        {
          "internalType": "address",
          "name": "owner",
          "type": "address"
        },
        {
          "internalType": "address",
          "name": "operator",
          "type": "address"
        }
      ],
      "name": "isApprovedForAll",
      "outputs": [
        {
          "internalType": "bool",
          "name": "",
          "type": "bool"
        }
      ],
      "stateMutability": "view",
      "type": "function"
    },
    {
      "inputs": [
        {
          "internalType": "uint256",
          "name": "strength",
          "type": "uint256"
        }
      ],
      "name": "mint",
      "outputs": [],
      "stateMutability": "payable",
      "type": "function"
    },
    {
      "inputs": [],
      "name": "name",
      "outputs": [
        {
          "internalType": "string",
          "name": "",
          "type": "string"
        }
      ],
      "stateMutability": "view",
      "type": "function"
    },
    {
      "inputs": [],
      "name": "owner",
      "outputs": [
        {
          "internalType": "address",
          "name": "",
          "type": "address"
        }
      ],
      "stateMutability": "view",
      "type": "function"
    },
    {
      "inputs": [
        {
          "internalType": "uint256",
          "name": "tokenId",
          "type": "uint256"
        }
      ],
      "name": "ownerOf",
      "outputs": [
        {
          "internalType": "address",
          "name": "",
          "type": "address"
        }
      ],
      "stateMutability": "view",
      "type": "function"
    },
    {
      "inputs": [],
      "name": "renounceOwnership",
      "outputs": [],
      "stateMutability": "nonpayable",
      "type": "function"
    },
    {
      "inputs": [
        {
          "internalType": "address",
          "name": "from",
          "type": "address"
        },
        {
          "internalType": "address",
          "name": "to",
          "type": "address"
        },
        {
          "internalType": "uint256",
          "name": "tokenId",
          "type": "uint256"
        }
      ],
      "name": "safeTransferFrom",
      "outputs": [],
      "stateMutability": "nonpayable",
      "type": "function"
    },
    {
      "inputs": [
        {
          "internalType": "address",
          "name": "from",
          "type": "address"
        },
        {
          "internalType": "address",
          "name": "to",
          "type": "address"
        },
        {
          "internalType": "uint256",
          "name": "tokenId",
          "type": "uint256"
        },
        {
          "internalType": "bytes",
          "name": "data",
          "type": "bytes"
        }
      ],
      "name": "safeTransferFrom",
      "outputs": [],
      "stateMutability": "nonpayable",
      "type": "function"
    },
    {
      "inputs": [
        {
          "internalType": "address",
          "name": "operator",
          "type": "address"
        },
        {
          "internalType": "bool",
          "name": "approved",
          "type": "bool"
        }
      ],
      "name": "setApprovalForAll",
      "outputs": [],
      "stateMutability": "nonpayable",
      "type": "function"
    },
    {
      "inputs": [
        {
          "internalType": "string",
          "name": "newBaseURI",
          "type": "string"
        }
      ],
      "name": "setBaseURI",
      "outputs": [],
      "stateMutability": "nonpayable",
      "type": "function"
    },
    {
      "inputs": [
        {
          "internalType": "address",
          "name": "newSigner",
          "type": "address"
        }
      ],
      "name": "setSigner",
      "outputs": [],
      "stateMutability": "nonpayable",
      "type": "function"
    },
    {
      "inputs": [
        {
          "internalType": "uint256",
          "name": "tokenId",
          "type": "uint256"
        },
        {
          "internalType": "uint256",
          "name": "strength",
          "type": "uint256"
        }
      ],
      "name": "setStrength",
      "outputs": [],
      "stateMutability": "nonpayable",
      "type": "function"
    },
    {
      "inputs": [
        {
          "internalType": "uint256",
          "name": "",
          "type": "uint256"
        }
      ],
      "name": "strengths",
      "outputs": [
        {
          "internalType": "uint256",
          "name": "",
          "type": "uint256"
        }
      ],
      "stateMutability": "view",
      "type": "function"
    },
    {
      "inputs": [
        {
          "internalType": "bytes4",
          "name": "interfaceId",
          "type": "bytes4"
        }
      ],
      "name": "supportsInterface",
      "outputs": [
        {
          "internalType": "bool",
          "name": "",
          "type": "bool"
        }
      ],
      "stateMutability": "view",
      "type": "function"
    },
    {
      "inputs": [],
      "name": "symbol",
      "outputs": [
        {
          "internalType": "string",
          "name": "",
          "type": "string"
        }
      ],
      "stateMutability": "view",
      "type": "function"
    },
    {
      "inputs": [
        {
          "internalType": "uint256",
          "name": "tokenId",
          "type": "uint256"
        }
      ],
      "name": "tokenURI",
      "outputs": [
        {
          "internalType": "string",
          "name": "",
          "type": "string"
        }
      ],
      "stateMutability": "view",
      "type": "function"
    },
    {
      "inputs": [],
      "name": "totalSupply",
      "outputs": [
        {
          "internalType": "uint256",
          "name": "",
          "type": "uint256"
        }
      ],
      "stateMutability": "view",
      "type": "function"
    },
    {
      "inputs": [
        {
          "internalType": "address",
          "name": "from",
          "type": "address"
        },
        {
          "internalType": "address",
          "name": "to",
          "type": "address"
        },
        {
          "internalType": "uint256",
          "name": "tokenId",
          "type": "uint256"
        }
      ],
      "name": "transferFrom",
      "outputs": [],
      "stateMutability": "nonpayable",
      "type": "function"
    },
    {
      "inputs": [
        {
          "internalType": "address",
          "name": "newOwner",
          "type": "address"
        }
      ],
      "name": "transferOwnership",
      "outputs": [],
      "stateMutability": "nonpayable",
      "type": "function"
    },
    {
      "inputs": [
        {
          "internalType": "uint256",
          "name": "tokenId",
          "type": "uint256"
        },
        {
          "internalType": "uint256",
          "name": "strength",
          "type": "uint256"
        }
      ],
      "name": "upgrade",
      "outputs": [],
      "stateMutability": "payable",
      "type": "function"
    },
    {
      "inputs": [],
      "name": "withdraw",
      "outputs": [],
      "stateMutability": "nonpayable",
      "type": "function"
    }
  ],
  "bytecode": "0x6101a060405260206101609081527f68747470733a2f2f626173657061696e742e78797a2f6170692f62727573682f61018052600d906200004190826200031b565b503480156200004f57600080fd5b50604080518082018252600f8082526e084c2e6caa0c2d2dce84084e4eae6d608b1b60208084018290528451808601865260018152603160f81b8183015285518087018752938452838201929092528451808601909552600385526221282160e91b9085015291926000620000c583826200031b565b506001620000d482826200031b565b50620000e6915083905060066200019f565b61012052620000f78160076200019f565b61014052815160208084019190912060e052815190820120610100524660a0526200018560e05161010051604080517f8b73c3c69bb8fe3d512ecc4cf759cc79239f7b179b0ffacaa9a75d522b39400f60208201529081019290925260608201524660808201523060a082015260009060c00160405160208183030381529060405280519060200120905090565b60805250503060c0526200019933620001d8565b6200045c565b6000602083511015620001bf57620001b7836200022a565b9050620001d2565b81620001cc84826200031b565b5060ff90505b92915050565b600880546001600160a01b038381166001600160a01b0319831681179093556040519116919082907f8be0079c531659141344cd1fd0a4f28419497f9722a3daafe3b4186f6b6457e090600090a35050565b600080829050601f8151111562000261578260405163305a27a960e01b8152600401620002589190620003e7565b60405180910390fd5b80516200026e8262000437565b179392505050565b634e487b7160e01b600052604160045260246000fd5b600181811c90821680620002a157607f821691505b602082108103620002c257634e487b7160e01b600052602260045260246000fd5b50919050565b601f8211156200031657600081815260208120601f850160051c81016020861015620002f15750805b601f850160051c820191505b818110156200031257828155600101620002fd565b5050505b505050565b81516001600160401b0381111562000337576200033762000276565b6200034f816200034884546200028c565b84620002c8565b602080601f8311600181146200038757600084156200036e5750858301515b600019600386901b1c1916600185901b17855562000312565b600085815260208120601f198616915b82811015620003b85788860151825594840194600190910190840162000397565b5085821015620003d75787850151600019600388901b60f8161c191681555b5050505050600190811b01905550565b600060208083528351808285015260005b818110156200041657858101830151858201604001528201620003f8565b506000604082860101526040601f19601f8301168501019250505092915050565b80516020808301519190811015620002c25760001960209190910360031b1b16919050565b60805160a05160c05160e051610100516101205161014051611c50620004a860003960006109ba0152600061098f01526000505060005050600050506000505060005050611c506000f3fe6080604052600436106101665760003560e01c806370a08231116100d1578063a0712d681161008a578063c87b56dd11610064578063c87b56dd1461040b578063e985e9c51461042b578063ef77c1861461044b578063f2fde38b1461047857600080fd5b8063a0712d68146103b8578063a22cb465146103cb578063b88d4fde146103eb57600080fd5b806370a0823114610308578063715018a6146103285780637e9657b71461033d57806384b0196e1461035d5780638da5cb5b1461038557806395d89b41146103a357600080fd5b80633ccfd60b116101235780633ccfd60b1461026057806342842e0e14610275578063451450ec1461029557806355f804b3146102a85780636352211e146102c85780636c19e783146102e857600080fd5b806301ffc9a71461016b57806306fdde03146101a0578063081812fc146101c2578063095ea7b3146101fa57806318160ddd1461021c57806323b872dd14610240575b600080fd5b34801561017757600080fd5b5061018b610186366004611560565b610498565b60405190151581526020015b60405180910390f35b3480156101ac57600080fd5b506101b56104ea565b60405161019791906115cd565b3480156101ce57600080fd5b506101e26101dd3660046115e0565b61057c565b6040516001600160a01b039091168152602001610197565b34801561020657600080fd5b5061021a610215366004611615565b6105a3565b005b34801561022857600080fd5b5061023260095481565b604051908152602001610197565b34801561024c57600080fd5b5061021a61025b36600461163f565b6106bd565b34801561026c57600080fd5b5061021a6106ee565b34801561028157600080fd5b5061021a61029036600461163f565b6107bb565b61021a6102a336600461167b565b6107d6565b3480156102b457600080fd5b5061021a6102c336600461169d565b610840565b3480156102d457600080fd5b506101e26102e33660046115e0565b610855565b3480156102f457600080fd5b5061021a61030336600461170f565b6108b5565b34801561031457600080fd5b5061023261032336600461170f565b6108df565b34801561033457600080fd5b5061021a610965565b34801561034957600080fd5b5061021a61035836600461167b565b610979565b34801561036957600080fd5b50610372610981565b604051610197979695949392919061172a565b34801561039157600080fd5b506008546001600160a01b03166101e2565b3480156103af57600080fd5b506101b5610a0a565b61021a6103c63660046115e0565b610a19565b3480156103d757600080fd5b5061021a6103e63660046117c0565b610a56565b3480156103f757600080fd5b5061021a610406366004611812565b610a65565b34801561041757600080fd5b506101b56104263660046115e0565b610a9d565b34801561043757600080fd5b5061018b6104463660046118ee565b610b04565b34801561045757600080fd5b506102326104663660046115e0565b600a6020526000908152604090205481565b34801561048457600080fd5b5061021a61049336600461170f565b610b32565b60006001600160e01b031982166380ac58cd60e01b14806104c957506001600160e01b03198216635b5e139f60e01b145b806104e457506301ffc9a760e01b6001600160e01b03198316145b92915050565b6060600080546104f990611921565b80601f016020809104026020016040519081016040528092919081815260200182805461052590611921565b80156105725780601f1061054757610100808354040283529160200191610572565b820191906000526020600020905b81548152906001019060200180831161055557829003601f168201915b5050505050905090565b600061058782610ba8565b506000908152600460205260409020546001600160a01b031690565b60006105ae82610855565b9050806001600160a01b0316836001600160a01b0316036106205760405162461bcd60e51b815260206004820152602160248201527f4552433732313a20617070726f76616c20746f2063757272656e74206f776e656044820152603960f91b60648201526084015b60405180910390fd5b336001600160a01b038216148061063c575061063c8133610b04565b6106ae5760405162461bcd60e51b815260206004820152603d60248201527f4552433732313a20617070726f76652063616c6c6572206973206e6f7420746f60448201527f6b656e206f776e6572206f7220617070726f76656420666f7220616c6c0000006064820152608401610617565b6106b88383610c07565b505050565b6106c73382610c75565b6106e35760405162461bcd60e51b81526004016106179061195b565b6106b8838383610cd4565b6106f6610e38565b600061070a6008546001600160a01b031690565b604080516000815260208101918290526001600160a01b039290921691479161073391906119a8565b60006040518083038185875af1925050503d8060008114610770576040519150601f19603f3d011682016040523d82523d6000602084013e610775565b606091505b50509050806107b85760405162461bcd60e51b815260206004820152600f60248201526e151c985b9cd9995c8819985a5b1959608a1b6044820152606401610617565b50565b6106b883838360405180602001604052806000815250610a65565b6107de610e38565b6000821180156107f057506009548211155b61082e5760405162461bcd60e51b815260206004820152600f60248201526e125b9d985b1a59081d1bdad95b9259608a1b6044820152606401610617565b6000918252600a602052604090912055565b610848610e38565b600d6106b8828483611a12565b6000818152600260205260408120546001600160a01b0316806104e45760405162461bcd60e51b8152602060048201526018602482015277115490cdcc8c4e881a5b9d985b1a59081d1bdad95b88125160421b6044820152606401610617565b6108bd610e38565b600b80546001600160a01b0319166001600160a01b0392909216919091179055565b60006001600160a01b0382166109495760405162461bcd60e51b815260206004820152602960248201527f4552433732313a2061646472657373207a65726f206973206e6f7420612076616044820152683634b21037bbb732b960b91b6064820152608401610617565b506001600160a01b031660009081526003602052604090205490565b61096d610e38565b6109776000610e92565b565b61082e610e38565b6000606080828080836109b57f00000000000000000000000000000000000000000000000000000000000000006006610ee4565b6109e07f00000000000000000000000000000000000000000000000000000000000000006007610ee4565b60408051600080825260208201909252600f60f81b9b939a50919850469750309650945092509050565b6060600180546104f990611921565b610a21610e38565b60098054906000610a3183611ad3565b9190505550610a4233600954610f8f565b6009546000908152600a6020526040902055565b610a61338383610fa9565b5050565b610a6f3383610c75565b610a8b5760405162461bcd60e51b81526004016106179061195b565b610a9784848484611077565b50505050565b6060610aa882610ba8565b6000610ab26110aa565b90506000815111610ad25760405180602001604052806000815250610afd565b80610adc846110b9565b604051602001610aed929190611afa565b6040516020818303038152906040525b9392505050565b6001600160a01b03918216600090815260056020908152604080832093909416825291909152205460ff1690565b610b3a610e38565b6001600160a01b038116610b9f5760405162461bcd60e51b815260206004820152602660248201527f4f776e61626c653a206e6577206f776e657220697320746865207a65726f206160448201526564647265737360d01b6064820152608401610617565b6107b881610e92565b6000818152600260205260409020546001600160a01b03166107b85760405162461bcd60e51b8152602060048201526018602482015277115490cdcc8c4e881a5b9d985b1a59081d1bdad95b88125160421b6044820152606401610617565b600081815260046020526040902080546001600160a01b0319166001600160a01b0384169081179091558190610c3c82610855565b6001600160a01b03167f8c5be1e5ebec7d5bd14f71427d1e84f3dd0314c0f7b2291e5b200ac8c7c3b92560405160405180910390a45050565b600080610c8183610855565b9050806001600160a01b0316846001600160a01b03161480610ca85750610ca88185610b04565b80610ccc5750836001600160a01b0316610cc18461057c565b6001600160a01b0316145b949350505050565b826001600160a01b0316610ce782610855565b6001600160a01b031614610d0d5760405162461bcd60e51b815260040161061790611b29565b6001600160a01b038216610d6f5760405162461bcd60e51b8152602060048201526024808201527f4552433732313a207472616e7366657220746f20746865207a65726f206164646044820152637265737360e01b6064820152608401610617565b826001600160a01b0316610d8282610855565b6001600160a01b031614610da85760405162461bcd60e51b815260040161061790611b29565b600081815260046020908152604080832080546001600160a01b03199081169091556001600160a01b0387811680865260038552838620805460001901905590871680865283862080546001019055868652600290945282852080549092168417909155905184937fddf252ad1be2c89b69c2b068fc378daa952ba7f163c4a11628f55a4df523b3ef91a4505050565b6008546001600160a01b031633146109775760405162461bcd60e51b815260206004820181905260248201527f4f776e61626c653a2063616c6c6572206973206e6f7420746865206f776e65726044820152606401610617565b600880546001600160a01b038381166001600160a01b0319831681179093556040519116919082907f8be0079c531659141344cd1fd0a4f28419497f9722a3daafe3b4186f6b6457e090600090a35050565b606060ff8314610efe57610ef78361114c565b90506104e4565b818054610f0a90611921565b80601f0160208091040260200160405190810160405280929190818152602001828054610f3690611921565b8015610f835780601f10610f5857610100808354040283529160200191610f83565b820191906000526020600020905b815481529060010190602001808311610f6657829003601f168201915b505050505090506104e4565b610a6182826040518060200160405280600081525061118b565b816001600160a01b0316836001600160a01b03160361100a5760405162461bcd60e51b815260206004820152601960248201527f4552433732313a20617070726f766520746f2063616c6c6572000000000000006044820152606401610617565b6001600160a01b03838116600081815260056020908152604080832094871680845294825291829020805460ff191686151590811790915591519182527f17307eab39ab6107e8899845ad3d59bd9653f200f220920489ca2b5937696c31910160405180910390a3505050565b611082848484610cd4565b61108e848484846111be565b610a975760405162461bcd60e51b815260040161061790611b6e565b6060600d80546104f990611921565b606060006110c6836112bf565b600101905060008167ffffffffffffffff8111156110e6576110e66117fc565b6040519080825280601f01601f191660200182016040528015611110576020820181803683370190505b5090508181016020015b600019016f181899199a1a9b1b9c1cb0b131b232b360811b600a86061a8153600a850494508461111a57509392505050565b6060600061115983611397565b604080516020808252818301909252919250600091906020820181803683375050509182525060208101929092525090565b61119583836113bf565b6111a260008484846111be565b6106b85760405162461bcd60e51b815260040161061790611b6e565b60006001600160a01b0384163b156112b457604051630a85bd0160e11b81526001600160a01b0385169063150b7a0290611202903390899088908890600401611bc0565b6020604051808303816000875af192505050801561123d575060408051601f3d908101601f1916820190925261123a91810190611bfd565b60015b61129a573d80801561126b576040519150601f19603f3d011682016040523d82523d6000602084013e611270565b606091505b5080516000036112925760405162461bcd60e51b815260040161061790611b6e565b805181602001fd5b6001600160e01b031916630a85bd0160e11b149050610ccc565b506001949350505050565b60008072184f03e93ff9f4daa797ed6e38ed64bf6a1f0160401b83106112fe5772184f03e93ff9f4daa797ed6e38ed64bf6a1f0160401b830492506040015b6d04ee2d6d415b85acef8100000000831061132a576d04ee2d6d415b85acef8100000000830492506020015b662386f26fc10000831061134857662386f26fc10000830492506010015b6305f5e1008310611360576305f5e100830492506008015b612710831061137457612710830492506004015b60648310611386576064830492506002015b600a83106104e45760010192915050565b600060ff8216601f8111156104e457604051632cd44ac360e21b815260040160405180910390fd5b6001600160a01b0382166114155760405162461bcd60e51b815260206004820181905260248201527f4552433732313a206d696e7420746f20746865207a65726f20616464726573736044820152606401610617565b6000818152600260205260409020546001600160a01b03161561147a5760405162461bcd60e51b815260206004820152601c60248201527f4552433732313a20746f6b656e20616c7265616479206d696e746564000000006044820152606401610617565b6000818152600260205260409020546001600160a01b0316156114df5760405162461bcd60e51b815260206004820152601c60248201527f4552433732313a20746f6b656e20616c7265616479206d696e746564000000006044820152606401610617565b6001600160a01b038216600081815260036020908152604080832080546001019055848352600290915280822080546001600160a01b0319168417905551839291907fddf252ad1be2c89b69c2b068fc378daa952ba7f163c4a11628f55a4df523b3ef908290a45050565b6001600160e01b0319811681146107b857600080fd5b60006020828403121561157257600080fd5b8135610afd8161154a565b60005b83811015611598578181015183820152602001611580565b50506000910152565b600081518084526115b981602086016020860161157d565b601f01601f19169290920160200192915050565b602081526000610afd60208301846115a1565b6000602082840312156115f257600080fd5b5035919050565b80356001600160a01b038116811461161057600080fd5b919050565b6000806040838503121561162857600080fd5b611631836115f9565b946020939093013593505050565b60008060006060848603121561165457600080fd5b61165d846115f9565b925061166b602085016115f9565b9150604084013590509250925092565b6000806040838503121561168e57600080fd5b50508035926020909101359150565b600080602083850312156116b057600080fd5b823567ffffffffffffffff808211156116c857600080fd5b818501915085601f8301126116dc57600080fd5b8135818111156116eb57600080fd5b8660208285010111156116fd57600080fd5b60209290920196919550909350505050565b60006020828403121561172157600080fd5b610afd826115f9565b60ff60f81b881681526000602060e08184015261174a60e084018a6115a1565b838103604085015261175c818a6115a1565b606085018990526001600160a01b038816608086015260a0850187905284810360c0860152855180825283870192509083019060005b818110156117ae57835183529284019291840191600101611792565b50909c9b505050505050505050505050565b600080604083850312156117d357600080fd5b6117dc836115f9565b9150602083013580151581146117f157600080fd5b809150509250929050565b634e487b7160e01b600052604160045260246000fd5b6000806000806080858703121561182857600080fd5b611831856115f9565b935061183f602086016115f9565b925060408501359150606085013567ffffffffffffffff8082111561186357600080fd5b818701915087601f83011261187757600080fd5b813581811115611889576118896117fc565b604051601f8201601f19908116603f011681019083821181831017156118b1576118b16117fc565b816040528281528a60208487010111156118ca57600080fd5b82602086016020830137600060208483010152809550505050505092959194509250565b6000806040838503121561190157600080fd5b61190a836115f9565b9150611918602084016115f9565b90509250929050565b600181811c9082168061193557607f821691505b60208210810361195557634e487b7160e01b600052602260045260246000fd5b50919050565b6020808252602d908201527f4552433732313a2063616c6c6572206973206e6f7420746f6b656e206f776e6560408201526c1c881bdc88185c1c1c9bdd9959609a1b606082015260800190565b600082516119ba81846020870161157d565b9190910192915050565b601f8211156106b857600081815260208120601f850160051c810160208610156119eb5750805b601f850160051c820191505b81811015611a0a578281556001016119f7565b505050505050565b67ffffffffffffffff831115611a2a57611a2a6117fc565b611a3e83611a388354611921565b836119c4565b6000601f841160018114611a725760008515611a5a5750838201355b600019600387901b1c1916600186901b178355611acc565b600083815260209020601f19861690835b82811015611aa35786850135825560209485019460019092019101611a83565b5086821015611ac05760001960f88860031b161c19848701351681555b505060018560011b0183555b5050505050565b600060018201611af357634e487b7160e01b600052601160045260246000fd5b5060010190565b60008351611b0c81846020880161157d565b835190830190611b2081836020880161157d565b01949350505050565b60208082526025908201527f4552433732313a207472616e736665722066726f6d20696e636f72726563742060408201526437bbb732b960d91b606082015260800190565b60208082526032908201527f4552433732313a207472616e7366657220746f206e6f6e20455243373231526560408201527131b2b4bb32b91034b6b83632b6b2b73a32b960711b606082015260800190565b6001600160a01b0385811682528416602082015260408101839052608060608201819052600090611bf3908301846115a1565b9695505050505050565b600060208284031215611c0f57600080fd5b8151610afd8161154a56fea2646970667358221220f1cafbaf035bc71ae45f4b14bd7e80cc238732cfd3d42a334f6d655521b4afba64736f6c63430008130033",
  "linkReferences": {},
  "deployedLinkReferences": {}
}