{
  "_format": "hh-sol-artifact-1",
  "contractName": "BasePaintRaffle",
  "sourceName": "contracts/BasePaintRaffle.sol",
  "abi": [
    {
      "inputs": [
        {
          "internalType": "address",
          "name": "_basePaintAddress",
          "type": "address"
        },
        {
          "internalType": "uint256",
          "name": "_brushId",
          "type": "uint256"
        },
        {
          "internalType": "string",
          "name": "_imageURI",
          "type": "string"
        }
      ],
      "stateMutability": "nonpayable",
      "type": "constructor"
    },
    {
      "inputs": [],
      "name": "AlreadyClaimed",
      "type": "error"
    },
    {
      "inputs": [],
      "name": "AlreadyDrawn",
      "type": "error"
    },
    {
      "inputs": [],
      "name": "ApprovalCallerNotOwnerNorApproved",
      "type": "error"
    },
    {
      "inputs": [],
      "name": "ApprovalQueryForNonexistentToken",
      "type": "error"
    },
    {
      "inputs": [],
      "name": "BalanceQueryForZeroAddress",
      "type": "error"
    },
    {
      "inputs": [],
      "name": "FailedToWithdraw",
      "type": "error"
    },
    {
      "inputs": [],
      "name": "IncorrectEthAmount",
      "type": "error"
    },
    {
      "inputs": [],
      "name": "InvalidDay",
      "type": "error"
    },
    {
      "inputs": [],
      "name": "MintERC2309QuantityExceedsLimit",
      "type": "error"
    },
    {
      "inputs": [],
      "name": "MintToZeroAddress",
      "type": "error"
    },
    {
      "inputs": [],
      "name": "MintZeroQuantity",
      "type": "error"
    },
    {
      "inputs": [],
      "name": "NonExistentToken",
      "type": "error"
    },
    {
      "inputs": [],
      "name": "NotWinner",
      "type": "error"
    },
    {
      "inputs": [],
      "name": "OwnerQueryForNonexistentToken",
      "type": "error"
    },
    {
      "inputs": [],
      "name": "OwnershipNotInitializedForExtraData",
      "type": "error"
    },
    {
      "inputs": [],
      "name": "TransferCallerNotOwnerNorApproved",
      "type": "error"
    },
    {
      "inputs": [],
      "name": "TransferFromIncorrectOwner",
      "type": "error"
    },
    {
      "inputs": [],
      "name": "TransferToNonERC721ReceiverImplementer",
      "type": "error"
    },
    {
      "inputs": [],
      "name": "TransferToZeroAddress",
      "type": "error"
    },
    {
      "inputs": [],
      "name": "URIQueryForNonexistentToken",
      "type": "error"
    },
    {
      "inputs": [],
      "name": "ZeroTicketAmount",
      "type": "error"
    },
    {
      "anonymous": false,
      "inputs": [
        {
          "indexed": true,
          "internalType": "address",
          "name": "owner",
          "type": "address"
        },
        {
          "indexed": true,
          "internalType": "address",
          "name": "approved",
          "type": "address"
        },
        {
          "indexed": true,
          "internalType": "uint256",
          "name": "tokenId",
          "type": "uint256"
        }
      ],
      "name": "Approval",
      "type": "event"
    },
    {
      "anonymous": false,
      "inputs": [
        {
          "indexed": true,
          "internalType": "address",
          "name": "owner",
          "type": "address"
        },
        {
          "indexed": true,
          "internalType": "address",
          "name": "operator",
          "type": "address"
        },
        {
          "indexed": false,
          "internalType": "bool",
          "name": "approved",
          "type": "bool"
        }
      ],
      "name": "ApprovalForAll",
      "type": "event"
    },
    {
      "anonymous": false,
      "inputs": [
        {
          "indexed": true,
          "internalType": "uint256",
          "name": "fromTokenId",
          "type": "uint256"
        },
        {
          "indexed": false,
          "internalType": "uint256",
          "name": "toTokenId",
          "type": "uint256"
        },
        {
          "indexed": true,
          "internalType": "address",
          "name": "from",
          "type": "address"
        },
        {
          "indexed": true,
          "internalType": "address",
          "name": "to",
          "type": "address"
        }
      ],
      "name": "ConsecutiveTransfer",
      "type": "event"
    },
    {
      "anonymous": false,
      "inputs": [
        {
          "indexed": true,
          "internalType": "address",
          "name": "previousOwner",
          "type": "address"
        },
        {
          "indexed": true,
          "internalType": "address",
          "name": "newOwner",
          "type": "address"
        }
      ],
      "name": "OwnershipTransferred",
      "type": "event"
    },
    {
      "anonymous": false,
      "inputs": [
        {
          "indexed": false,
          "internalType": "uint256",
          "name": "winningTokenId",
          "type": "uint256"
        },
        {
          "indexed": false,
          "internalType": "uint256",
          "name": "day",
          "type": "uint256"
        }
      ],
      "name": "RaffleWinner",
      "type": "event"
    },
    {
      "anonymous": false,
      "inputs": [
        {
          "indexed": false,
          "internalType": "uint256",
          "name": "prevPrice",
          "type": "uint256"
        },
        {
          "indexed": false,
          "internalType": "uint256",
          "name": "updatedPrice",
          "type": "uint256"
        }
      ],
      "name": "TicketPriceUpdated",
      "type": "event"
    },
    {
      "anonymous": false,
      "inputs": [
        {
          "indexed": false,
          "internalType": "address",
          "name": "recipent",
          "type": "address"
        },
        {
          "indexed": false,
          "internalType": "uint256",
          "name": "amount",
          "type": "uint256"
        },
        {
          "indexed": false,
          "internalType": "uint256",
          "name": "price",
          "type": "uint256"
        }
      ],
      "name": "TicketsPurchased",
      "type": "event"
    },
    {
      "anonymous": false,
      "inputs": [
        {
          "indexed": true,
          "internalType": "address",
          "name": "from",
          "type": "address"
        },
        {
          "indexed": true,
          "internalType": "address",
          "name": "to",
          "type": "address"
        },
        {
          "indexed": true,
          "internalType": "uint256",
          "name": "tokenId",
          "type": "uint256"
        }
      ],
      "name": "Transfer",
      "type": "event"
    },
    {
      "inputs": [
        {
          "internalType": "address",
          "name": "to",
          "type": "address"
        },
        {
          "internalType": "uint256",
          "name": "tokenId",
          "type": "uint256"
        }
      ],
      "name": "approve",
      "outputs": [],
      "stateMutability": "payable",
      "type": "function"
    },
    {
      "inputs": [
        {
          "internalType": "address",
          "name": "owner",
          "type": "address"
        }
      ],
      "name": "balanceOf",
      "outputs": [
        {
          "internalType": "uint256",
          "name": "",
          "type": "uint256"
        }
      ],
      "stateMutability": "view",
      "type": "function"
    },
    {
      "inputs": [],
      "name": "basePaint",
      "outputs": [
        {
          "internalType": "contract BasePaint",
          "name": "",
          "type": "address"
        }
      ],
      "stateMutability": "view",
      "type": "function"
    },
    {
      "inputs": [],
      "name": "brushId",
      "outputs": [
        {
          "internalType": "uint256",
          "name": "",
          "type": "uint256"
        }
      ],
      "stateMutability": "view",
      "type": "function"
    },
    {
      "inputs": [
        {
          "internalType": "address",
          "name": "_recipient",
          "type": "address"
        },
        {
          "internalType": "uint256",
          "name": "_amount",
          "type": "uint256"
        }
      ],
      "name": "buyTickets",
      "outputs": [],
      "stateMutability": "payable",
      "type": "function"
    },
    {
      "inputs": [
        {
          "internalType": "uint256",
          "name": "",
          "type": "uint256"
        }
      ],
      "name": "claimedEarnings",
      "outputs": [
        {
          "internalType": "bool",
          "name": "",
          "type": "bool"
        }
      ],
      "stateMutability": "view",
      "type": "function"
    },
    {
      "inputs": [
        {
          "internalType": "uint256",
          "name": "tokenId",
          "type": "uint256"
        }
      ],
      "name": "getApproved",
      "outputs": [
        {
          "internalType": "address",
          "name": "",
          "type": "address"
        }
      ],
      "stateMutability": "view",
      "type": "function"
    },
    {
      "inputs": [
        {
          "internalType": "address",
          "name": "owner",
          "type": "address"
        },
        {
          "internalType": "address",
          "name": "operator",
          "type": "address"
        }
      ],
      "name": "isApprovedForAll",
      "outputs": [
        {
          "internalType": "bool",
          "name": "",
          "type": "bool"
        }
      ],
      "stateMutability": "view",
      "type": "function"
    },
    {
      "inputs": [],
      "name": "name",
      "outputs": [
        {
          "internalType": "string",
          "name": "",
          "type": "string"
        }
      ],
      "stateMutability": "view",
      "type": "function"
    },
    {
      "inputs": [],
      "name": "owner",
      "outputs": [
        {
          "internalType": "address",
          "name": "",
          "type": "address"
        }
      ],
      "stateMutability": "view",
      "type": "function"
    },
    {
      "inputs": [
        {
          "internalType": "uint256",
          "name": "tokenId",
          "type": "uint256"
        }
      ],
      "name": "ownerOf",
      "outputs": [
        {
          "internalType": "address",
          "name": "",
          "type": "address"
        }
      ],
      "stateMutability": "view",
      "type": "function"
    },
    {
      "inputs": [
        {
          "internalType": "bytes",
          "name": "_pixels",
          "type": "bytes"
        }
      ],
      "name": "paint",
      "outputs": [],
      "stateMutability": "payable",
      "type": "function"
    },
    {
      "inputs": [],
      "name": "renounceOwnership",
      "outputs": [],
      "stateMutability": "nonpayable",
      "type": "function"
    },
    {
      "inputs": [
        {
          "internalType": "address",
          "name": "from",
          "type": "address"
        },
        {
          "internalType": "address",
          "name": "to",
          "type": "address"
        },
        {
          "internalType": "uint256",
          "name": "tokenId",
          "type": "uint256"
        }
      ],
      "name": "safeTransferFrom",
      "outputs": [],
      "stateMutability": "payable",
      "type": "function"
    },
    {
      "inputs": [
        {
          "internalType": "address",
          "name": "from",
          "type": "address"
        },
        {
          "internalType": "address",
          "name": "to",
          "type": "address"
        },
        {
          "internalType": "uint256",
          "name": "tokenId",
          "type": "uint256"
        },
        {
          "internalType": "bytes",
          "name": "_data",
          "type": "bytes"
        }
      ],
      "name": "safeTransferFrom",
      "outputs": [],
      "stateMutability": "payable",
      "type": "function"
    },
    {
      "inputs": [
        {
          "internalType": "address",
          "name": "operator",
          "type": "address"
        },
        {
          "internalType": "bool",
          "name": "approved",
          "type": "bool"
        }
      ],
      "name": "setApprovalForAll",
      "outputs": [],
      "stateMutability": "nonpayable",
      "type": "function"
    },
    {
      "inputs": [],
      "name": "startRaffle",
      "outputs": [],
      "stateMutability": "nonpayable",
      "type": "function"
    },
    {
      "inputs": [
        {
          "internalType": "bytes4",
          "name": "interfaceId",
          "type": "bytes4"
        }
      ],
      "name": "supportsInterface",
      "outputs": [
        {
          "internalType": "bool",
          "name": "",
          "type": "bool"
        }
      ],
      "stateMutability": "view",
      "type": "function"
    },
    {
      "inputs": [],
      "name": "symbol",
      "outputs": [
        {
          "internalType": "string",
          "name": "",
          "type": "string"
        }
      ],
      "stateMutability": "view",
      "type": "function"
    },
    {
      "inputs": [],
      "name": "ticketPrice",
      "outputs": [
        {
          "internalType": "uint256",
          "name": "",
          "type": "uint256"
        }
      ],
      "stateMutability": "view",
      "type": "function"
    },
    {
      "inputs": [
        {
          "internalType": "uint256",
          "name": "_tokenId",
          "type": "uint256"
        }
      ],
      "name": "tokenURI",
      "outputs": [
        {
          "internalType": "string",
          "name": "",
          "type": "string"
        }
      ],
      "stateMutability": "view",
      "type": "function"
    },
    {
      "inputs": [],
      "name": "totalSupply",
      "outputs": [
        {
          "internalType": "uint256",
          "name": "",
          "type": "uint256"
        }
      ],
      "stateMutability": "view",
      "type": "function"
    },
    {
      "inputs": [
        {
          "internalType": "address",
          "name": "from",
          "type": "address"
        },
        {
          "internalType": "address",
          "name": "to",
          "type": "address"
        },
        {
          "internalType": "uint256",
          "name": "tokenId",
          "type": "uint256"
        }
      ],
      "name": "transferFrom",
      "outputs": [],
      "stateMutability": "payable",
      "type": "function"
    },
    {
      "inputs": [
        {
          "internalType": "address",
          "name": "newOwner",
          "type": "address"
        }
      ],
      "name": "transferOwnership",
      "outputs": [],
      "stateMutability": "nonpayable",
      "type": "function"
    },
    {
      "inputs": [
        {
          "internalType": "uint256",
          "name": "_newPrice",
          "type": "uint256"
        }
      ],
      "name": "updateTicketPrice",
      "outputs": [],
      "stateMutability": "nonpayable",
      "type": "function"
    },
    {
      "inputs": [
        {
          "internalType": "uint256",
          "name": "",
          "type": "uint256"
        }
      ],
      "name": "winners",
      "outputs": [
        {
          "internalType": "uint256",
          "name": "",
          "type": "uint256"
        }
      ],
      "stateMutability": "view",
      "type": "function"
    },
    {
      "inputs": [
        {
          "internalType": "uint256",
          "name": "_day",
          "type": "uint256"
        }
      ],
      "name": "withdawEarnings",
      "outputs": [],
      "stateMutability": "nonpayable",
      "type": "function"
    },
    {
      "inputs": [
        {
          "internalType": "address",
          "name": "_recipient",
          "type": "address"
        }
      ],
      "name": "withdrawTicketSales",
      "outputs": [],
      "stateMutability": "nonpayable",
      "type": "function"
    }
  ],
  "bytecode": "0x60a06040523480156200001157600080fd5b506040516200238c3803806200238c83398101604081905262000034916200013f565b60405180604001604052806011815260200170426173655061696e74205469636b65747360781b8152506040518060400160405280600381526020016210941560ea1b81525081600290816200008b9190620002cd565b5060036200009a8282620002cd565b5050600160005550620000ad33620000d7565b6001600160a01b038316608052600a829055600b620000cd8282620002cd565b5050505062000399565b600880546001600160a01b038381166001600160a01b0319831681179093556040519116919082907f8be0079c531659141344cd1fd0a4f28419497f9722a3daafe3b4186f6b6457e090600090a35050565b634e487b7160e01b600052604160045260246000fd5b6000806000606084860312156200015557600080fd5b83516001600160a01b03811681146200016d57600080fd5b60208581015160408701519295509350906001600160401b03808211156200019457600080fd5b818701915087601f830112620001a957600080fd5b815181811115620001be57620001be62000129565b604051601f8201601f19908116603f01168101908382118183101715620001e957620001e962000129565b816040528281528a868487010111156200020257600080fd5b600093505b8284101562000226578484018601518185018701529285019262000207565b60008684830101528096505050505050509250925092565b600181811c908216806200025357607f821691505b6020821081036200027457634e487b7160e01b600052602260045260246000fd5b50919050565b601f821115620002c857600081815260208120601f850160051c81016020861015620002a35750805b601f850160051c820191505b81811015620002c457828155600101620002af565b5050505b505050565b81516001600160401b03811115620002e957620002e962000129565b6200030181620002fa84546200023e565b846200027a565b602080601f831160018114620003395760008415620003205750858301515b600019600386901b1c1916600185901b178555620002c4565b600085815260208120601f198616915b828110156200036a5788860151825594840194600190910190840162000349565b5085821015620003895787850151600019600388901b60f8161c191681555b5050505050600190811b01905550565b608051611fb4620003d8600039600081816101cd0152818161071d015281816108160152818161099c01528181610adb0152610ce80152611fb46000f3fe6080604052600436106101b65760003560e01c8063715018a6116100ec578063b88d4fde1161008a578063e985e9c511610064578063e985e9c5146104a3578063f02137c8146104c3578063f2fde38b146104e3578063f834eeca1461050357600080fd5b8063b88d4fde1461045a578063c87b56dd1461046d578063e6664cd11461048d57600080fd5b80638da5cb5b116100c65780638da5cb5b146103da57806395d89b41146103f8578063a22cb4651461040d578063a2fb11751461042d57600080fd5b8063715018a614610382578063815bbd831461039757806388f57767146103c757600080fd5b806317c50bdf11610159578063242284f111610133578063242284f11461031a57806342842e0e1461032f5780636352211e1461034257806370a082311461036257600080fd5b806317c50bdf146102d757806318160ddd146102ea57806323b872dd1461030757600080fd5b8063081812fc11610195578063081812fc1461025e578063095ea7b31461027e5780631209b1f61461029357806315487ad7146102b757600080fd5b806258fce1146101bb57806301ffc9a71461020c57806306fdde031461023c575b600080fd5b3480156101c757600080fd5b506101ef7f000000000000000000000000000000000000000000000000000000000000000081565b6040516001600160a01b0390911681526020015b60405180910390f35b34801561021857600080fd5b5061022c610227366004611895565b610523565b6040519015158152602001610203565b34801561024857600080fd5b50610251610575565b6040516102039190611902565b34801561026a57600080fd5b506101ef610279366004611915565b610607565b61029161028c366004611943565b61064b565b005b34801561029f57600080fd5b506102a960095481565b604051908152602001610203565b3480156102c357600080fd5b506102916102d2366004611915565b6106eb565b6102916102e536600461196f565b610998565b3480156102f657600080fd5b5060015460005403600019016102a9565b6102916103153660046119e1565b610b4c565b34801561032657600080fd5b50610291610ce4565b61029161033d3660046119e1565b610e8a565b34801561034e57600080fd5b506101ef61035d366004611915565b610eaa565b34801561036e57600080fd5b506102a961037d366004611a22565b610eb5565b34801561038e57600080fd5b50610291610f04565b3480156103a357600080fd5b5061022c6103b2366004611915565b600d6020526000908152604090205460ff1681565b6102916103d5366004611943565b610f18565b3480156103e657600080fd5b506008546001600160a01b03166101ef565b34801561040457600080fd5b50610251610fc3565b34801561041957600080fd5b50610291610428366004611a3f565b610fd2565b34801561043957600080fd5b506102a9610448366004611915565b600c6020526000908152604090205481565b610291610468366004611a93565b61103e565b34801561047957600080fd5b50610251610488366004611915565b611088565b34801561049957600080fd5b506102a9600a5481565b3480156104af57600080fd5b5061022c6104be366004611b73565b61110f565b3480156104cf57600080fd5b506102916104de366004611915565b61113d565b3480156104ef57600080fd5b506102916104fe366004611a22565b611183565b34801561050f57600080fd5b5061029161051e366004611a22565b611201565b60006301ffc9a760e01b6001600160e01b03198316148061055457506380ac58cd60e01b6001600160e01b03198316145b8061056f5750635b5e139f60e01b6001600160e01b03198316145b92915050565b60606002805461058490611ba1565b80601f01602080910402602001604051908101604052809291908181526020018280546105b090611ba1565b80156105fd5780601f106105d2576101008083540402835291602001916105fd565b820191906000526020600020905b8154815290600101906020018083116105e057829003601f168201915b5050505050905090565b600061061282611281565b61062f576040516333d1c03960e21b815260040160405180910390fd5b506000908152600660205260409020546001600160a01b031690565b600061065682610eaa565b9050336001600160a01b0382161461068f57610672813361110f565b61068f576040516367d9dca160e11b815260040160405180910390fd5b60008281526006602052604080822080546001600160a01b0319166001600160a01b0387811691821790925591518593918516917f8c5be1e5ebec7d5bd14f71427d1e84f3dd0314c0f7b2291e5b200ac8c7c3b92591a4505050565b6000818152600d602052604090205460ff161561071b57604051630c8d9eab60e31b815260040160405180910390fd5b7f00000000000000000000000000000000000000000000000000000000000000006001600160a01b031663b74e452b6040518163ffffffff1660e01b8152600401602060405180830381865afa158015610779573d6000803e3d6000fd5b505050506040513d601f19601f8201168201806040525081019061079d9190611bdb565b81106107bc57604051630b046f8960e21b815260040160405180910390fd5b6040805160018082528183019092526000916020808301908036833701905050905081816000815181106107f2576107f2611bf4565b6020908102919091010152604051638abe099160e01b815247906001600160a01b037f00000000000000000000000000000000000000000000000000000000000000001690638abe09919061084b908590600401611c0a565b600060405180830381600087803b15801561086557600080fd5b505af1158015610879573d6000803e3d6000fd5b504792506000915061088d90508383611c64565b6000868152600c60205260408082205490516331a9108f60e11b815260048101829052929350913090636352211e90602401602060405180830381865afa1580156108dc573d6000803e3d6000fd5b505050506040513d601f19601f820116820180604052508101906109009190611c77565b90506000816001600160a01b03168460405160006040518083038185875af1925050503d806000811461094f576040519150601f19603f3d011682016040523d82523d6000602084013e610954565b606091505b505090508061097657604051632684a07960e01b815260040160405180910390fd5b50505060009485525050600d602052505060409020805460ff19166001179055565b60007f00000000000000000000000000000000000000000000000000000000000000006001600160a01b031663b74e452b6040518163ffffffff1660e01b8152600401602060405180830381865afa1580156109f8573d6000803e3d6000fd5b505050506040513d601f19601f82011682018060405250810190610a1c9190611bdb565b6000818152600c6020526040908190205490516331a9108f60e11b815260048101829052919250903090636352211e90602401602060405180830381865afa158015610a6c573d6000803e3d6000fd5b505050506040513d601f19601f82011682018060405250810190610a909190611c77565b6001600160a01b0316336001600160a01b031614610ac1576040516330c6392160e11b815260040160405180910390fd5b600a54604051632c1e6ef360e21b81526001600160a01b037f0000000000000000000000000000000000000000000000000000000000000000169163b079bbcc91610b1491869189908990600401611c94565b600060405180830381600087803b158015610b2e57600080fd5b505af1158015610b42573d6000803e3d6000fd5b5050505050505050565b6000610b57826112b6565b9050836001600160a01b0316816001600160a01b031614610b8a5760405162a1148160e81b815260040160405180910390fd5b60008281526006602052604090208054338082146001600160a01b03881690911417610bd757610bba863361110f565b610bd757604051632ce44b5f60e11b815260040160405180910390fd5b6001600160a01b038516610bfe57604051633a954ecd60e21b815260040160405180910390fd5b8015610c0957600082555b6001600160a01b038681166000908152600560205260408082208054600019019055918716808252919020805460010190554260a01b17600160e11b17600085815260046020526040812091909155600160e11b84169003610c9b57600184016000818152600460205260408120549003610c99576000548114610c995760008181526004602052604090208490555b505b83856001600160a01b0316876001600160a01b03167fddf252ad1be2c89b69c2b068fc378daa952ba7f163c4a11628f55a4df523b3ef60405160405180910390a4505050505050565b60007f00000000000000000000000000000000000000000000000000000000000000006001600160a01b031663b74e452b6040518163ffffffff1660e01b8152600401602060405180830381865afa158015610d44573d6000803e3d6000fd5b505050506040513d601f19601f82011682018060405250810190610d689190611bdb565b6000818152600c602052604090205490915015610d985760405163097e1d9b60e01b815260040160405180910390fd5b604080514460208201529081018290526000906060016040516020818303038152906040528051906020012060001c90506000306001600160a01b03166318160ddd6040518163ffffffff1660e01b8152600401602060405180830381865afa158015610e09573d6000803e3d6000fd5b505050506040513d601f19601f82011682018060405250810190610e2d9190611bdb565b610e379083611ce7565b6000848152600c602090815260409182902083905581518381529081018690529192507fa1e3d3bd6bcaf2ce1bc718cef231fcb8c9976e46b16713a3291ae4a66f79ade6910160405180910390a1505050565b610ea58383836040518060200160405280600081525061103e565b505050565b600061056f826112b6565b60006001600160a01b038216610ede576040516323d3ad8160e21b815260040160405180910390fd5b506001600160a01b031660009081526005602052604090205467ffffffffffffffff1690565b610f0c61132c565b610f166000611386565b565b80600003610f3957604051630c3cab0960e11b815260040160405180910390fd5b80600954610f479190611cfb565b3414610f6657604051638b6ebb4d60e01b815260040160405180910390fd5b610f7033826113d8565b600954604080516001600160a01b038516815260208101849052908101919091527f7d58f5ddf17a7f65d89554f5d8144ae1dc788046467927063c090f92ed1145dc906060015b60405180910390a15050565b60606003805461058490611ba1565b3360008181526007602090815260408083206001600160a01b03871680855290835292819020805460ff191686151590811790915590519081529192917f17307eab39ab6107e8899845ad3d59bd9653f200f220920489ca2b5937696c31910160405180910390a35050565b611049848484610b4c565b6001600160a01b0383163b1561108257611065848484846114d6565b611082576040516368d2bf6b60e11b815260040160405180910390fd5b50505050565b606061109382611281565b6110b057604051634a1850bf60e11b815260040160405180910390fd5b60006110bb836115c1565b600b6040516020016110ce929190611d12565b60405160208183030381529060405290506110e881611654565b6040516020016110f89190611e78565b604051602081830303815290604052915050919050565b6001600160a01b03918216600090815260076020908152604080832093909416825291909152205460ff1690565b61114561132c565b600980549082905560408051828152602081018490527fd4c5e06b1ae097ba02372652a7adaa6e4a8e00be527497a3ad0ebc3f761ef3fb9101610fb7565b61118b61132c565b6001600160a01b0381166111f55760405162461bcd60e51b815260206004820152602660248201527f4f776e61626c653a206e6577206f776e657220697320746865207a65726f206160448201526564647265737360d01b60648201526084015b60405180910390fd5b6111fe81611386565b50565b61120961132c565b6000816001600160a01b03164760405160006040518083038185875af1925050503d8060008114611256576040519150601f19603f3d011682016040523d82523d6000602084013e61125b565b606091505b505090508061127d57604051632684a07960e01b815260040160405180910390fd5b5050565b600081600111158015611295575060005482105b801561056f575050600090815260046020526040902054600160e01b161590565b60008180600111611313576000548110156113135760008181526004602052604081205490600160e01b82169003611311575b8060000361130a5750600019016000818152600460205260409020546112e9565b9392505050565b505b604051636f96cda160e11b815260040160405180910390fd5b6008546001600160a01b03163314610f165760405162461bcd60e51b815260206004820181905260248201527f4f776e61626c653a2063616c6c6572206973206e6f7420746865206f776e657260448201526064016111ec565b600880546001600160a01b038381166001600160a01b0319831681179093556040519116919082907f8be0079c531659141344cd1fd0a4f28419497f9722a3daafe3b4186f6b6457e090600090a35050565b60008054908290036113fd5760405163b562e8dd60e01b815260040160405180910390fd5b6001600160a01b03831660008181526005602090815260408083208054680100000000000000018802019055848352600490915281206001851460e11b4260a01b178317905582840190839083907fddf252ad1be2c89b69c2b068fc378daa952ba7f163c4a11628f55a4df523b3ef8180a4600183015b8181146114ac57808360007fddf252ad1be2c89b69c2b068fc378daa952ba7f163c4a11628f55a4df523b3ef600080a4600101611474565b50816000036114cd57604051622e076360e81b815260040160405180910390fd5b60005550505050565b604051630a85bd0160e11b81526000906001600160a01b0385169063150b7a029061150b903390899088908890600401611ebd565b6020604051808303816000875af1925050508015611546575060408051601f3d908101601f1916820190925261154391810190611efa565b60015b6115a4573d808015611574576040519150601f19603f3d011682016040523d82523d6000602084013e611579565b606091505b50805160000361159c576040516368d2bf6b60e11b815260040160405180910390fd5b805181602001fd5b6001600160e01b031916630a85bd0160e11b149050949350505050565b606060006115ce836117a7565b600101905060008167ffffffffffffffff8111156115ee576115ee611a7d565b6040519080825280601f01601f191660200182016040528015611618576020820181803683370190505b5090508181016020015b600019016f181899199a1a9b1b9c1cb0b131b232b360811b600a86061a8153600a850494508461162257509392505050565b6060815160000361167357505060408051602081019091526000815290565b6000604051806060016040528060408152602001611f3f60409139905060006003845160026116a29190611f17565b6116ac9190611f2a565b6116b7906004611cfb565b67ffffffffffffffff8111156116cf576116cf611a7d565b6040519080825280601f01601f1916602001820160405280156116f9576020820181803683370190505b509050600182016020820185865187015b80821015611765576003820191508151603f8160121c168501518453600184019350603f81600c1c168501518453600184019350603f8160061c168501518453600184019350603f811685015184535060018301925061170a565b505060038651066001811461178157600281146117945761179c565b603d6001830353603d600283035361179c565b603d60018303535b509195945050505050565b60008072184f03e93ff9f4daa797ed6e38ed64bf6a1f0160401b83106117e65772184f03e93ff9f4daa797ed6e38ed64bf6a1f0160401b830492506040015b6d04ee2d6d415b85acef81000000008310611812576d04ee2d6d415b85acef8100000000830492506020015b662386f26fc10000831061183057662386f26fc10000830492506010015b6305f5e1008310611848576305f5e100830492506008015b612710831061185c57612710830492506004015b6064831061186e576064830492506002015b600a831061056f5760010192915050565b6001600160e01b0319811681146111fe57600080fd5b6000602082840312156118a757600080fd5b813561130a8161187f565b60005b838110156118cd5781810151838201526020016118b5565b50506000910152565b600081518084526118ee8160208601602086016118b2565b601f01601f19169290920160200192915050565b60208152600061130a60208301846118d6565b60006020828403121561192757600080fd5b5035919050565b6001600160a01b03811681146111fe57600080fd5b6000806040838503121561195657600080fd5b82356119618161192e565b946020939093013593505050565b6000806020838503121561198257600080fd5b823567ffffffffffffffff8082111561199a57600080fd5b818501915085601f8301126119ae57600080fd5b8135818111156119bd57600080fd5b8660208285010111156119cf57600080fd5b60209290920196919550909350505050565b6000806000606084860312156119f657600080fd5b8335611a018161192e565b92506020840135611a118161192e565b929592945050506040919091013590565b600060208284031215611a3457600080fd5b813561130a8161192e565b60008060408385031215611a5257600080fd5b8235611a5d8161192e565b915060208301358015158114611a7257600080fd5b809150509250929050565b634e487b7160e01b600052604160045260246000fd5b60008060008060808587031215611aa957600080fd5b8435611ab48161192e565b93506020850135611ac48161192e565b925060408501359150606085013567ffffffffffffffff80821115611ae857600080fd5b818701915087601f830112611afc57600080fd5b813581811115611b0e57611b0e611a7d565b604051601f8201601f19908116603f01168101908382118183101715611b3657611b36611a7d565b816040528281528a6020848701011115611b4f57600080fd5b82602086016020830137600060208483010152809550505050505092959194509250565b60008060408385031215611b8657600080fd5b8235611b918161192e565b91506020830135611a728161192e565b600181811c90821680611bb557607f821691505b602082108103611bd557634e487b7160e01b600052602260045260246000fd5b50919050565b600060208284031215611bed57600080fd5b5051919050565b634e487b7160e01b600052603260045260246000fd5b6020808252825182820181905260009190848201906040850190845b81811015611c4257835183529284019291840191600101611c26565b50909695505050505050565b634e487b7160e01b600052601160045260246000fd5b8181038181111561056f5761056f611c4e565b600060208284031215611c8957600080fd5b815161130a8161192e565b84815283602082015260606040820152816060820152818360808301376000818301608090810191909152601f909201601f191601019392505050565b634e487b7160e01b600052601260045260246000fd5b600082611cf657611cf6611cd1565b500690565b808202811582820484141761056f5761056f611c4e565b607b60f81b8152600060017f226e616d65223a2022426173655061696e74205469636b6574200000000000008184015284516020611d5682601b8701838a016118b2565b61088b60f21b601b9286019283018190526f113232b9b1b934b83a34b7b7111d101160811b601d8401526f253ab9ba1030903a34b1b5b2ba17171760811b602d840152603d830152691134b6b0b3b2911d101160b11b603f830152855460499060009080861c86821680611dcb57607f821691505b8582108103611de857634e487b7160e01b84526022600452602484fd5b808015611dfc5760018114611e1557611e46565b60ff198416888701528215158302880186019450611e46565b60008c81526020902060005b84811015611e3c5781548a8201890152908a01908801611e21565b5050858389010194505b50505050611e6b611e5e82601160f91b815260010190565b607d60f81b815260010190565b9998505050505050505050565b7f646174613a6170706c69636174696f6e2f6a736f6e3b6261736536342c000000815260008251611eb081601d8501602087016118b2565b91909101601d0192915050565b6001600160a01b0385811682528416602082015260408101839052608060608201819052600090611ef0908301846118d6565b9695505050505050565b600060208284031215611f0c57600080fd5b815161130a8161187f565b8082018082111561056f5761056f611c4e565b600082611f3957611f39611cd1565b50049056fe4142434445464748494a4b4c4d4e4f505152535455565758595a6162636465666768696a6b6c6d6e6f707172737475767778797a303132333435363738392b2fa26469706673582212200e4d9b8b819665617adef1363d875ed10c0feff8cf21fc7fc3221ce5e9a5cd5264736f6c63430008130033",
  "linkReferences": {},
  "deployedLinkReferences": {}
}